S0180000636F756E74657220377365676D656E742E73726563C2
S11300000C942A000C943F000C943F000C943F0085
S11300100C943F000C943F000C943F000C943F0060
S11300200C943F000C943F000C943F000C943F0050
S11300300C943F000C943F000C943F000C943F0040
S11300400C943F000C943F000C943F000C943F0030
S11300500C943F0011241FBECFE5D8E0DEBFCDBF16
S113006010E0A0E6B0E0E6E0F1E002C005900D92F9
S1130070AA36B107D9F70E9454000C9481000C945D
S11300800000982F907F95BBA89AA998AA9A00007F
S1130090AA988295807F85BBAA9A0000AA9881E2DB
S11300A08A95F1F700000895CF93DF93CDB7DEB7BB
S11300B02A970FB6F894DEBF0FBECDBFB898C09A8A
S11300C08FEF8ABB83B7886083BF83B7866083BFA3
S11300D089E08CBF8AE0E0E6F0E0DE011196019051
S11300E00D928A95E1F712B780E3810F0E944100D7
S11300F0E1E0F0E0EC0FFD1FE10FF11D80818BBB0F
S1090100F2CFF894FFCFDA
S10D0106C0F9A4B0999283F8809820
S9030000FC
